{
  "contractName": "Manager",
  "abi": [
    {
      "inputs": [
        {
          "internalType": "address",
          "name": "",
          "type": "address"
        }
      ],
      "name": "numObjects",
      "outputs": [
        {
          "internalType": "uint256",
          "name": "",
          "type": "uint256"
        }
      ],
      "stateMutability": "view",
      "type": "function"
    },
    {
      "inputs": [
        {
          "internalType": "address",
          "name": "",
          "type": "address"
        },
        {
          "internalType": "uint256",
          "name": "",
          "type": "uint256"
        }
      ],
      "name": "objects",
      "outputs": [
        {
          "internalType": "uint256",
          "name": "objectType",
          "type": "uint256"
        },
        {
          "internalType": "string",
          "name": "hash",
          "type": "string"
        }
      ],
      "stateMutability": "view",
      "type": "function"
    },
    {
      "inputs": [
        {
          "internalType": "address",
          "name": "",
          "type": "address"
        }
      ],
      "name": "password",
      "outputs": [
        {
          "internalType": "string",
          "name": "",
          "type": "string"
        }
      ],
      "stateMutability": "view",
      "type": "function"
    },
    {
      "inputs": [
        {
          "internalType": "uint256",
          "name": "_objectType",
          "type": "uint256"
        },
        {
          "internalType": "uint256",
          "name": "_id",
          "type": "uint256"
        },
        {
          "internalType": "string",
          "name": "_hash",
          "type": "string"
        }
      ],
      "name": "saveObject",
      "outputs": [],
      "stateMutability": "nonpayable",
      "type": "function"
    },
    {
      "inputs": [
        {
          "internalType": "uint256",
          "name": "id",
          "type": "uint256"
        }
      ],
      "name": "deleteObject",
      "outputs": [],
      "stateMutability": "nonpayable",
      "type": "function"
    },
    {
      "inputs": [
        {
          "internalType": "uint256",
          "name": "id",
          "type": "uint256"
        },
        {
          "internalType": "string",
          "name": "_hash",
          "type": "string"
        }
      ],
      "name": "editObject",
      "outputs": [],
      "stateMutability": "nonpayable",
      "type": "function"
    },
    {
      "inputs": [
        {
          "internalType": "string",
          "name": "cypher",
          "type": "string"
        }
      ],
      "name": "setPass",
      "outputs": [],
      "stateMutability": "nonpayable",
      "type": "function"
    }
  ],
  "bytecode": "0x608060405234801561001057600080fd5b50610bb5806100206000396000f3fe608060405234801561001057600080fd5b506004361061007d5760003560e01c8063806d2a4c1161005b578063806d2a4c146100ea57806395e8b82d14610106578063ad63a48a14610122578063ceb7e5ac146101525761007d565b806344e9fd4b146100825780635beb1ea41461009e57806371236b1a146100ce575b600080fd5b61009c6004803603810190610097919061073d565b610183565b005b6100b860048036038101906100b391906106d8565b610232565b6040516100c591906108aa565b60405180910390f35b6100e860048036038101906100e3919061077e565b6102d2565b005b61010460048036038101906100ff91906107fb565b61033f565b005b610120600480360381019061011b91906107a7565b610427565b005b61013c600480360381019061013791906106d8565b610492565b60405161014991906108cc565b60405180910390f35b61016c60048036038101906101679190610701565b6104aa565b60405161017a9291906108e7565b60405180910390f35b6000600260003373ffffffffffffffffffffffffffffffffffffffff1673ffffffffffffffffffffffffffffffffffffffff16815260200190815260200160002080546101cf90610a07565b9050146101db57600080fd5b80600260003373ffffffffffffffffffffffffffffffffffffffff1673ffffffffffffffffffffffffffffffffffffffff168152602001908152602001600020908051906020019061022e929190610563565b5050565b6002602052806000526040600020600091509050805461025190610a07565b80601f016020809104026020016040519081016040528092919081815260200182805461027d90610a07565b80156102ca5780601f1061029f576101008083540402835291602001916102ca565b820191906000526020600020905b8154815290600101906020018083116102ad57829003601f168201915b505050505081565b6000803373ffffffffffffffffffffffffffffffffffffffff1673ffffffffffffffffffffffffffffffffffffffff168152602001908152602001600020600082815260200190815260200160002060008082016000905560018201600061033a91906105e9565b505050565b6040518060400160405280848152602001828152506000803373ffffffffffffffffffffffffffffffffffffffff1673ffffffffffffffffffffffffffffffffffffffff16815260200190815260200160002060008481526020019081526020016000206000820151816000015560208201518160010190805190602001906103c9929190610563565b50905050600160003373ffffffffffffffffffffffffffffffffffffffff1673ffffffffffffffffffffffffffffffffffffffff168152602001908152602001600020600081548092919061041d90610a6a565b9190505550505050565b806000803373ffffffffffffffffffffffffffffffffffffffff1673ffffffffffffffffffffffffffffffffffffffff1681526020019081526020016000206000848152602001908152602001600020600101908051906020019061048d929190610563565b505050565b60016020528060005260406000206000915090505481565b6000602052816000526040600020602052806000526040600020600091509150508060000154908060010180546104e090610a07565b80601f016020809104026020016040519081016040528092919081815260200182805461050c90610a07565b80156105595780601f1061052e57610100808354040283529160200191610559565b820191906000526020600020905b81548152906001019060200180831161053c57829003601f168201915b5050505050905082565b82805461056f90610a07565b90600052602060002090601f01602090048101928261059157600085556105d8565b82601f106105aa57805160ff19168380011785556105d8565b828001600101855582156105d8579182015b828111156105d75782518255916020019190600101906105bc565b5b5090506105e59190610629565b5090565b5080546105f590610a07565b6000825580601f106106075750610626565b601f0160209004906000526020600020908101906106259190610629565b5b50565b5b8082111561064257600081600090555060010161062a565b5090565b60006106596106548461093c565b610917565b90508281526020810184848401111561067157600080fd5b61067c8482856109c5565b509392505050565b60008135905061069381610b51565b92915050565b600082601f8301126106aa57600080fd5b81356106ba848260208601610646565b91505092915050565b6000813590506106d281610b68565b92915050565b6000602082840312156106ea57600080fd5b60006106f884828501610684565b91505092915050565b6000806040838503121561071457600080fd5b600061072285828601610684565b9250506020610733858286016106c3565b9150509250929050565b60006020828403121561074f57600080fd5b600082013567ffffffffffffffff81111561076957600080fd5b61077584828501610699565b91505092915050565b60006020828403121561079057600080fd5b600061079e848285016106c3565b91505092915050565b600080604083850312156107ba57600080fd5b60006107c8858286016106c3565b925050602083013567ffffffffffffffff8111156107e557600080fd5b6107f185828601610699565b9150509250929050565b60008060006060848603121561081057600080fd5b600061081e868287016106c3565b935050602061082f868287016106c3565b925050604084013567ffffffffffffffff81111561084c57600080fd5b61085886828701610699565b9150509250925092565b600061086d8261096d565b6108778185610978565b93506108878185602086016109d4565b61089081610b40565b840191505092915050565b6108a4816109bb565b82525050565b600060208201905081810360008301526108c48184610862565b905092915050565b60006020820190506108e1600083018461089b565b92915050565b60006040820190506108fc600083018561089b565b818103602083015261090e8184610862565b90509392505050565b6000610921610932565b905061092d8282610a39565b919050565b6000604051905090565b600067ffffffffffffffff82111561095757610956610b11565b5b61096082610b40565b9050602081019050919050565b600081519050919050565b600082825260208201905092915050565b60006109948261099b565b9050919050565b600073ffffffffffffffffffffffffffffffffffffffff82169050919050565b6000819050919050565b82818337600083830152505050565b60005b838110156109f25780820151818401526020810190506109d7565b83811115610a01576000848401525b50505050565b60006002820490506001821680610a1f57607f821691505b60208210811415610a3357610a32610ae2565b5b50919050565b610a4282610b40565b810181811067ffffffffffffffff82111715610a6157610a60610b11565b5b80604052505050565b6000610a75826109bb565b91507fffffffffffffffffffffffffffffffffffffffffffffffffffffffffffffffff821415610aa857610aa7610ab3565b5b600182019050919050565b7f4e487b7100000000000000000000000000000000000000000000000000000000600052601160045260246000fd5b7f4e487b7100000000000000000000000000000000000000000000000000000000600052602260045260246000fd5b7f4e487b7100000000000000000000000000000000000000000000000000000000600052604160045260246000fd5b6000601f19601f8301169050919050565b610b5a81610989565b8114610b6557600080fd5b50565b610b71816109bb565b8114610b7c57600080fd5b5056fea264697066735822122055d6d6bf386b2f8d55ab23ad08e5f855cf7f1c125af12315444e02dbfe7e832364736f6c63430008040033",
  "immutableReferences": {},
  "source": "// SPDX-License-Identifier: MIT\npragma solidity ^0.8.4;\n\ncontract Manager {\n    // Stores the user > list of objects > ipfs hash\n    mapping(address => mapping(uint256  => Item)) public objects;\n\n    // Stores the number of objects a user has\n    mapping(address => uint) public numObjects;\n\n    // Stores the cyphered password\n    mapping(address => string) public password;\n\n    // Object\n    struct Item {\n        uint objectType;\n        string hash;\n    }\n\n    function saveObject(uint _objectType, uint _id, string memory _hash) public {\n        objects[msg.sender][_id] = Item(_objectType, _hash);\n        numObjects[msg.sender]++;\n    }\n\n    function deleteObject(uint id) public {\n        delete objects[msg.sender][id];\n    }\n\n    function editObject(uint id, string memory _hash) public {\n        objects[msg.sender][id].hash = _hash;\n    }\n    \n    function setPass(string memory cypher) public {\n        require(bytes(password[msg.sender]).length == 0);\n        password[msg.sender] = cypher;\n    }\n}",
  "sourcePath": "/home/danielmelchor/Documents/CodeProjects/Decentrapass/Contracts/contracts/Manager.sol",
  "compiler": {
    "name": "solc",
    "version": "0.8.4+commit.c7e474f2.Emscripten.clang"
  },
  "schemaVersion": "3.4.1",
  "updatedAt": "2021-05-20T21:29:56.092Z",
  "devdoc": {
    "kind": "dev",
    "methods": {},
    "version": 1
  },
  "userdoc": {
    "kind": "user",
    "methods": {},
    "version": 1
  }
}